:106B580090FFFD123B6F123A68D2A975C13FB296F9
:096B68007E017F2C12626080F2B4
:106AF00090FFFD123B6F123A68D2A91269841260AE
:0A6B0000FD7E007F0A12626080F142
:10000E0090FFFD123B6F123A68126BDB7E007F028F
:05001E0012626080F495
:106B710090FFFD123B6F123A68B2CD7E007F641226
:046B8100626080F5D9
:10586700124CFD5389F0438901D28CE4F594F593EA
:10587700F592F591F596F595F5B2F5B1F5B4F5B361
:1058870012548A90FFFF123B6FE4F07B017A0C7988
:105897005490FFFD123B6F123A687B007A00790043
:1058A70090FFFD123B6F123A687BFF7A6A79F0121C
:1058B700526490FFFF123B6F7401F0FB7A0C798CF6
:1058C70090FFFD123B6F123A687B007A00790090D7
:1058D700FFFD123B6F123A687BFF7A00790E125276
:1058E7006490FFFF123B6F7402F07B017A0C79C45E
:1058F70090FFFD123B6F123A687B007A00790090A7
:10590700FFFD123B6F123A687BFF7A6B7971125277
:105917006490FFFF123B6F7403F07B017A0C791CD4
:1059270090FFFD123B6F123A687B007A0079009076
:10593700FFFD123B6F123A687BFF7A6B7958125260
:045947006402655D34
:03000000025FE5B7
:0C5FE50075080475090075814E02602CDF
:101B7B00FFFFFFFFFFFFFFFFFFFFFFFFFFFFFFFF6A
:101B8B00FFFFFFFFFFFFFFFFFFFFFFFFFFFFFFFF5A
:101B9B00FFFFFFFFFFFFFFFFFFFFFFFFFFFFFFFF4A
:101BAB00E000000000000000000000000000000743
:101BBB00E000000000000000000000000000000733
:101BCB00E000000000000000000000000000000723
:101BDB00E0000000030001800C031E000000000762
:101BEB00E0000000037F01800C031B0000000007D6
:101BFB00E000000003633FFC0C03D800000000076B
:101C0B00E0000000036301800C031F0000000007CD
:101C1B00E000000007FF1FF9FFE37800000000075A
:101C2B00E0000000036318180C0FDE000000000733
:101C3B00E0000000036318181E0CDE000000000714
:101C4B00E000000003631FF81E0CDE00000000071D
:101C5B00E0000000037F0660330CCC00000000079F
:101C6B00E000000003800660330FDF000000000778
:101C7B00E000000007000C6C618C370000000007CF
:101C8B00E000000000FFB83DC0E06300000000076B
:101C9B00E000000000000000000000000000000752
:101CAB00E000000000000000000000000000000742
:101CBB00E000000000000000000000000000000732
:101CCB00E000000000000000000000000000000722
:101CDB00E000000000000000000000000000000712
:101CEB00E000000000000000000000000000000702
:101CFB00E020894000000000000000000000000709
:101D0B00EE2049400000000000000000000000072A
:101D1B00EAFE09400001C21E71CF9C73E20C708772
:101D2B00EA403E20000226028A28228A0612898770
:101D3B00EC508A20000022048A28228A02208887FD
:101D4B00EC904C800000C204122F048BC22C8887AD
:101D5B00EAFE1A80000022082228888A223288870D
:101D6B00EA1029000000220842209088222288874E
:101D7B00EA940940000222088228A08A222288873E
:101D8B00EC924A200001C708F9C73E71C71C71C706
:101D9B00E9128BE0000000000000000000000007CB
:101DAB00E8300820000000000000000000000007E1
:101DBB00E000000000000000000000000000000731
:101DCB00E000000000000000000000000000000721
:101DDB00E000000000000000000000000000000711
:101DEB00E000000000000000000000000000000701
:101DFB00E020000090000000000000000000000741
:101E0B00EE20FBE888000000000000000000000747
:101E1B00EAFE0A288001C21E71CF9C73E20C71C7C7
:101E2B00EA400A2FFE0226028A28228A06128A27F5
:101E3B00EC508A21000022048A28228A02200A27D9
:101E4B00EC9051410000C204122F048BC22C32675C
:101E5B00EAFE5141F80022082228888A223209A77B
:101E6B00EA1020828800220842209088222208272C
:101E7B00EA942082500222088228A08A22228A47D2
:101E8B00EC9251442001C708F9C73E71C71C7187FA
:101E9B00E9125248D80000000000000000000007C3
:101EAB00E83084230600000000000000000000075B
:101EBB00E000000000000000000000000000000730
:101ECB00E000000000000000000000000000000720
:101EDB00E000000000000000000000000000000710
:101EEB00E000000000000000000000000000000700
:101EFB00E0000000000000000000000000000007F0
:101F0B00E0000000000000000000000000000007DF
:101F1B00E0000000000000000000000000000007CF
:101F2B00E0000000000000000000000000000007BF
:101F3B00E0000000000000000000000000000007AF
:101F4B00FFFFFFFFFFFFFFFFFFFFFFFFFFFFFFFF96
:101F5B00FFFFFFFFFFFFFFFFFFFFFFFFFFFFFFFF86
:101F6B00FFFFFFFFFFFFFFFFFFFFFFFFFFFFFFFF76
:101F7B00FFFFFFFFFFFFFFFFFFFFFFFFFFFFFFFF66
:101F8B00FFFFFFFFFFFFFFFFFFFFFFFFFFFFFFFF56
:101F9B00FFFFFFFFFFFFFFFFFFFFFFFFFFFFFFFF46
:101FAB00E00000000000000000000000000000073F
:101FBB00E00000000000000000000000000000072F
:101FCB00E00000000000000000000000000000071F
:101FDB00E0000000030001800C031E00000000075E
:101FEB00E0000000037F01800C031B0000000007D2
:101FFB00E000000003633FFC0C03D8000000000767
:10200B00E0000000036301800C031F0000000007C9
:10201B00E000000007FF1FF9FFE378000000000756
:10202B00E0000000036318180C0FDE00000000072F
:10203B00E0000000036318181E0CDE000000000710
:10204B00E000000003631FF81E0CDE000000000719
:10205B00E0000000037F0660330CCC00000000079B
:10206B00E000000003800660330FDF000000000774
:10207B00E000000007000C6C618C370000000007CB
:10208B00E000000000FFB83DC0E063000000000767
:10209B00E00000000000000000000000000000074E
:1020AB00E00000000000000000000000000000073E
:1020BB00E00001000000000000000000000000072D
:1020CB00E00001000000000000000000000000071D
:1020DB00E00003800000000000000000000000078B
:1020EB00E00003800000000000000000000000077B
:1020FB00E0000540000000000000000000000007A9
:10210B00E0000100000000000000000000000007DC
:10211B00E0000100000000000000000000000007CC
:10212B00E0000100000000000000000000000007BC
:10213B00E0000100000000000000000000000007AC
:10214B00E00001000000000000000000000000079C
:10215B00E00001000000000000000000000000078C
:10216B00E000000000000000000000000800000775
:10217B00E0040000400000000000010F8800000791
:10218B00E01800003000000000007D848000000794
:10219B00E07FF01FFC00000000007DC50000000781
:1021AB00E01800003000000000003FE718D8C0071F
:1021BB00E00400004000000000003EE5086120073D
:1021CB00E00000000000000000007DC40841E007B3
:1021DB00E00000000000000000007D8408410007C3
:1021EB00E0000100000000000000000E1CE0E00712
:1021FB00E0000100000000000000000000000007EC
:10220B00E0000100000000000000000000000007DB
:10221B00E0000100000000000000000000000007CB
:10222B00E0000100000000000000000000000007BB
:10223B00E0000100000000000000000000000007AB
:10224B00E000054000000000000000000000000757
:10225B00E000038000000000000000000000000709
:10226B00E0000380000000000000000000000007F9
:10227B00E00001000000000000000010000000075B
:10228B00E000010001CEC0000000001800000007B4
:10229B00E0000000022480000000000C000000079A
:1022AB00E00000000225000000000304000000070E
:1022BB00E0000000022600000000060C00000007F2
:1022CB00E00000000225000000000C1800000007D1
:1022DB00E00000000224800000000FF00000000767
:1022EB00E000000002248000000004000000000752
:1022FB00E000000001CEC00000000200000000075B
:10230B00E0000000000000000000000000000007DB
:10231B00E0000000000000000000000000000007CB
:10232B00E0000000000000000000000000000007BB
:10233B00E0000000000000000000000000000007AB
:10234B00FFFFFFFFFFFFFFFFFFFFFFFFFFFFFFFF92
:10235B00FFFFFFFFFFFFFFFFFFFFFFFFFFFFFFFF82
:10236B00FFFFFFFFFFFFFFFFFFFFFFFFFFFFFFFF72
:10237B00FFFFFFFFFFFFFFFFFFFFFFFFFFFFFFFF62
:10238B00FFFFFFFFFFFFFFFFFFFFFFFFFFFFFFFF52
:10239B00FFFFFFFFFFFFFFFFFFFFFFFFFFFFFFFF42
:1023AB00E000000000000000000000030000000738
:1023BB00E000000000000000000000037DE3C00708
:1023CB00E000000000000000000000032494400720
:1023DB00E00000000000000000000003289400074C
:1023EB00E0000000000000000000000338E30007DD
:1023FB00E0000000000000000000000328808007C0
:10240B00E0000000000000000000000320804007F7
:10241B00E0000000000000000000000320844007E3
:10242B00E01FFFC01FFF001FFF800FFF71C780075A
:10243B00E01FFFC01FFF001FFF800FFF0000000702
:10244B00E0180000000000000180000300000007FE
:10245B00E0180000000000000180000300000007EE
:10246B00E018000000000000018000033F8000071F
:10247B00E01800000000000001800003248000072A
:10248B00E01800000000000001800003248000071A
:10249B00E018000000000000018000032680000708
:1024AB00E0180000000000000180000320800007FE
:1024BB00E01800000000000001FFF003208000077F
:1024CB00E01800000000000001FFF0033F80000750
:1024DB00E0180000000000000000300300000007BF
:1024EB00E01807FFFF000018000030030000000792
:1024FB00E01807FFFF000018000030030000000782
:10250B00E0000000030000180000300339C0000792
:10251B00E000000003000018000030037FE000071C
:10252B00E000000003000018000030037FE000070C
:10253B00E000000003000018000030037FE00007FC
:10254B00E000000003000018000030037FE00007EC
:10255B00E000000003000018000030033FC000073C
:10256B00E000000003007FF8000030031F8000072D
:10257B00E000000003007FF8018000030F0000075C
:10258B00E018060000006000018000030600000751
:10259B00E018060000006000018000030000000747
:1025AB00E018060000006000018000030000000737
:1025BB00E018060000006000018000030000000727
:1025CB00E018060000006000018000030F00000708
:1025DB00E0180600000060000180000313000007F4
:1025EB00E018060000006000018000031D8000075A
:1025FB00E018060000006000018000031480000753
:10260B00E0180600FF00601FFF8030037FE000072B
:10261B00E0180600FF00601FFF8030037FE000071B
:10262B00E01800000000000000003003000000076D
:10263B00E01800000000000000003003000000075D
:10264B00E01800000000000000003003000000074D
:10265B00E01800000000000000003003000000073D
:10266B00E01800000000000000003003000000072D
:10267B00E01800000000000000003003000000071D
:10268B00E01800000000000000003003000000070D
:10269B00E018000000000000000030031C4227C7B8
:1026AB00E01FFFFFFF007FFFFFFFF0032242210728
:1026BB00E01FFFFFFF007FFFFFFFF00340422107FA
:1026CB00E000000000000000000000034042210772
:1026DB00E000000000000000000000034E42210754
:1026EB00E000000000000000000000034242210750
:1026FB00E000000000000000000000032242210760
:10270B00E000000000000000000000031E79C1077C
:10271B00E0000000000000000000000300000007C4
:10272B00E0000000000000000000000300000007B4
:10273B00E0000000000000000000000300000007A4
:10274B00FFFFFFFFFFFFFFFFFFFFFFFFFFFFFFFF8E
:10275B00FFFFFFFFFFFFFFFFFFFFFFFFFFFFFFFF7E
:10276B00FFFFFFFFFFFFFFFFFFFFFFFFFFFFFFFF6E
:10277B00FFFFFFFFFFFFFFFFFFFFFFFFFFFFFFFF5E
:10278B00FFFFFFFFFFFFFFFFFFFFFFFFFFFFFFFF4E
:10279B00FFFFFFFFFFFFFFFFFFFFFFFFFFFFFFFF3E
:1027AB00E000000000000000000000000000000737
:1027BB00E000000000000000000000000000000727
:1027CB00E000000000000000000000000000000717
:1027DB00E000000000000000000000000000000707
:1027EB00E0000000000000000000000000000007F7
:1027FB00E0000002000010000804000020000007A9
:10280B00E0003103000018000C020000200000075C
:10281B00E000188200001980080200002000000769
:10282B00E00018C2000118C0080200FFFFF000070B
:10283B00E0000007F0FF984010FFF00020000007B9
:10284B00E00007F40001180011020000200000074F
:10285B00E0008588000308302302001FFFC000073B
:10286B00E0006917F0037FC04202001820800007C8
:10287B00E0006900202288007E02001820800007FB
:10288B00E00029F040120860447FE0182080000728
:10289B00E0001110801E0C6008000018208000075B
:1028AB00E0001110900C0CC01000001FFF800007FF
:1028BB00E000113FF00E058023BFE018F0C00007C9
:1028CB00E0003120800B05007C202011A8000007C0
:1028DB00E0006320801B060060202001240000071D
:1028EB00E000222080118610002020022600000725
:1028FB00E000222080218B100320200423000007FE
:10290B00E0006420802031901C20200821C00007AB
:10291B00E0006420804040D0703FE030207800071A
:10292B00E00008E3808080704020204020200007DA
:10293B00E00010C10000001800200000200000077C
:10294B00E000000000000000000000000000000795
:10295B00E000000000000000000000000000000785
:10296B00E000000000000000000000000000000775
:10297B00E000000000000000000000000000000765
:10298B00E000000000000000000000000000000755
:10299B00E000000000000000000000000000000745
:1029AB00E000000000000000000000000000000735
:1029BB00E000000000000000000000000000000725
:1029CB00E000000000000000000000000000000715
:1029DB00E0000000000000000FFFFFFFFF000007FA
:1029EB00E00000000000000008000000018000076C
:1029FB00E0000000000000000800000001C000071C
:102A0B00E0000000000000000BF000010140000797
:102A1B00E000000000000000090800010140000771
:102A2B00E000000000000000090800010140000761
:102A3B00E0000000000000000910E07139400007C1
:102A4B00E00000000000000009E1108921400007B0
:102A5B00E0000000000000000910310141400007B8
:102A6B00E0000000000000000908D101A1400007B0
:102A7B00E0000000000000000909110121400007DF
:102A8B00E000000000000000090930891140000738
:102A9B00E0000000000000000BF0D873B940000705
:102AAB00E0000000000000000800000001400007EB
:102ABB00E0000000000000000FFFFFFFFF400007D9
:102ACB00E0000000000000000C00000000C0000748
:102ADB00E0000000000000000600000000400007BE
:102AEB00E00000000000000003FFFFFFFFC0000735
:102AFB00E0000000000000000000000000000007E4
:102B0B00E0000000000000000000000000000007D3
:102B1B00E0000000000000000000000000000007C3
:102B2B00E0000000000000000000000000000007B3
:102B3B00E0000000000000000000000000000007A3
:102B4B00FFFFFFFFFFFFFFFFFFFFFFFFFFFFFFFF8A
:102B5B00FFFFFFFFFFFFFFFFFFFFFFFFFFFFFFFF7A
:102B6B00FFFFFFFFFFFFFFFFFFFFFFFFFFFFFFFF6A
:102B7B00FFFFFFFFFFFFFFFFFFFFFFFFFFFFFFFF5A
:102B8B00FFFFFFFFFFFFFFFFFFFFFFFFFFFFFFFF4A
:102B9B00FFFFFFFFFFFFFFFFFFFFFFFFFFFFFFFF3A
:102BAB00E000000000000000000000000000000733
:102BBB00E000000000000000000000000000000723
:102BCB00E000000000000000000000000000000713
:102BDB00E000000000000000000000000000000703
:102BEB00E0000000000000000000000000000007F3
:102BFB00E0000000000000000000000000000007E3
:102C0B00E0000000000000000000000000000007D2
:102C1B00E0000000000000000000000000000007C2
:102C2B00E0000000000000000000000000000007B2
:102C3B00E0000000000000000000000000000007A2
:102C4B00E000000040003000004000404000000762
:102C5B00E000011840003401F0400FC040000007B5
:102C6B00E0000088400013013340120040000007D1
:102C7B00E0000008FC3F11813240020440000007D5
:102C8B00E000006E8001100132400204400000079A
:102C9B00E0000651F40310E1F7FC3FF4400000079D
:102CAB00E00002910823FF013440020440000007BA
:102CBB00E000029E10121001344002044000000795
:102CCB00E0000092300A188138400784400000076A
:102CDB00E0000092100C0981F040066440000007F0
:102CEB00E0000113FE060B0133FC0A244000000731
:102CFB00E0000112100A0A013040122440000007C4
:102D0B00E000032210090C2230402204400000078F
:102D1B00E000032210110C2230404200400000075B
:102D2B00E000034410201222304002004000000754
:102D3B00E0000344102063422040020040000007E3
:102D4B00E000018C604181E467FE0203C0000007D4
:102D5B00E00001002000006000000200800000077E
:102D6B00E000000000000000000000000000000771
:102D7B00E000000000000000000000000000000761
:102D8B00E000000000000000000000000000000751
:102D9B00E000000000000000000000000000000741
:102DAB00E000000000000000000000000000000731
:102DBB00E000000000000000000000000000000721
:102DCB00E000000000000000000000000000000711
:102DDB00E0000000000000000FFFFFFFFF000007F6
:102DEB00E000000000000000080000000180000768
:102DFB00E0000000000000000800000001C0000718
:102E0B00E0000000000000000BF000010140000793
:102E1B00E00000000000000009080001014000076D
:102E2B00E00000000000000009080001014000075D
:102E3B00E0000000000000000910E07139400007BD
:102E4B00E00000000000000009E1108921400007AC
:102E5B00E0000000000000000910310141400007B4
:102E6B00E0000000000000000908D101A1400007AC
:102E7B00E0000000000000000909110121400007DB
:102E8B00E000000000000000090930891140000734
:102E9B00E0000000000000000BF0D873B940000701
:102EAB00E0000000000000000800000001400007E7
:102EBB00E0000000000000000FFFFFFFFF400007D5
:102ECB00E0000000000000000C00000000C0000744
:102EDB00E0000000000000000600000000400007BA
:102EEB00E00000000000000003FFFFFFFFC0000731
:102EFB00E0000000000000000000000000000007E0
:102F0B00E0000000000000000000000000000007CF
:102F1B00E0000000000000000000000000000007BF
:102F2B00E0000000000000000000000000000007AF
:102F3B00E00000000000000000000000000000079F
:102F4B00FFFFFFFFFFFFFFFFFFFFFFFFFFFFFFFF86
:102F5B00FFFFFFFFFFFFFFFFFFFFFFFFFFFFFFFF76
:102F6B00FFFFFFFFFFFFFFFFFFFFFFFFFFFFFFFF66
:102F7B003030FCFCFCFC3C3CFCFC3C3CFCFCFCFC1E
:082F8B003030F0F0FCFCF0F026
:1069AC00440D3800000000410DA200430D3C0000D6
:0869BC0000440D3F0000000043
:105CA700900E34123A68900E34123A48900002125D
:105CB7003AE0C003C002C001900D6E123A48D0828C
:105CC700D083D0E06B7008E965827003EA65837062
:105CD700037F0122900E34123A48900002123AE0F4
:105CE700C003C002C001900D71123A48D082D08320
:105CF700D0E06B7008E965827003EA658370037F03
:105D07000222900E34123A48900002123AE0C00381
:105D1700C002C001900D74123A48D082D083D0E0FF
:105D27006B7008E965827003EA658370037F03225D
:105D3700900E34123A48900002123AE0C003C002B3
:105D4700C001900D77123A48D082D083D0E06B70B3
:105D570008E965827003EA658370037F04227F0088
:015D67002219
:062F930090FFFD123B6FF0
:102F990030C30302303D900DA2E0640260030230A9
:102FA9003D900D71123A48C003C002C001900D87CF
:102FB900123A48900002123B10850883850982E481
:102FC900F0A3F0850883850982E0FEA3E0C3940697
:102FD900EE648094805052900D87123A4812363E22
:102FE90024FFFDE434FFFC900D87123A489000015C
:102FF900123657FF7E00850883850982E0FAA3E02F
:103009002FFFEE3A900E39F0A3EFF0900D3C123AF3
:103019004812648BEF60030236388508838509827C
:10302900E475F001123755809A900D87123A487469
:10303900FF12368430B3030230E0900DA2E064023F
:1030490060030230E0900D77123A48C003C002C015
:1030590001900D87123A48900002123B10850883AF
:10306900850982E4F0A3F0850883850982E0FEA33F
:10307900E0C39406EE648094805051900D87123A13
:103089004812363E2406FDE433FC900D87123A4877
:10309900900001123657FF7E00850883850982E07A
:1030A900FAA3E02FFFEE3A900E39F0A3EFF0900D5E
:1030B9003C123A4812648BEF600302363885088364
:1030C900850982E475F001123755809B900D8712AE
:1030D9003A48740112368430C00302317F900DA240
:1030E900E06402600302317F900D6E123A48C0031A
:1030F900C002C001900D87123A48900002123B109D
:10310900850883850982E4F0A3F08508838509820F
:10311900E0FEA3E0FFC39406EE64809480504990DA
:103129000D87123A4812363EFD7C00EF2DFDEC3E2C
:10313900FC900D87123A4890000112365724FFFE81
:10314900E434FF900E39F0A3CEF0900D3C123A48CA
:1031590012648BEF6003023638850883850982E49F
:1031690075F00112375580A2900D87123A489000E8
:103179000174FF1236A630B40302321D900DA2E08D
:103189006402600302321D900D74123A48C003C0F4
:1031990002C001900D87123A48900002123B108537
:1031A9000883850982E4F0A3F0850883850982E014
:1031B900FEA3E0FFC39406EE648094805048900D0E
:1031C90087123A4812363EFD7C00EF2DFDEC3EFC9D
:1031D900900D87123A489000011236572406FEE4F2
:1031E90033900E39F0A3CEF0900D3C123A48126498
:1031F9008BEF6003023638850883850982E475F010
:103209000112375580A3900D87123A489000017436
:10321900011236A630A603023407900DA2E064021B
:103229006003023407900D3C123A48900018123995
:1032390020E47B64FAF9F812387DEF24FEFFEE34BE
:10324900FFFEED34FFFDEC34FFFC900D3F12398C8D
:10325900D312390F4003023638900D3C123A489088
:103269000018123920E47B64FAF9F812387D900DC0
:103279003F1239D4850883850982E4F0A3F08508D3
:1032890083850982F0A3F0850883850982E0FEA37E
:10329900E0FFC39414EE64809480400302340790E5
:1032A9000CFC75F003EF123A2AEE75F003A425839E
:1032B900F583E060030233F7900D87123A48125CF8
:1032C900A7850883850982A3A3EFF085088385096B
:1032D90082A3A3E0FFC454F0FE850883850982E038
:1032E900FCA3E0FD900CFC75F003123A2AEC75F092
:1032F90003A42583F583EEF0EF24FE603C14606E91
:103309001470030233AC24036003023407900D8761
:10331900123A4812363E2402FF900CFD75F003ED77
:10332900123A2AEC75F003A42583F583EFF0900097
:103339000112365724FE0233DF900D87123A4812E4
:10334900363E24FEFF850883850982E0FCA3E0FD63
:10335900900CFD75F003123A2AEC75F003A425834D
:10336900F583EFF090000112365724028068900D22
:1033790087123A4812363E2402FF8508838509825E
:10338900E0FCA3E0FD900CFD75F003123A2AEC7500
:10339900F003A42583F583EFF0900001123657243A
:1033A900068033900D87123A4812363E2406FF856F
:1033B9000883850982E0FCA3E0FD900CFD75F0030C
:1033C900123A2AEC75F003A42583F583EFF09000F7
:1033D900011236572402FF900CFE75F003ED123AE4
:1033E9002AEC75F003A42583F583EFF08010850896
:1033F90083850982E475F00112375502329030B2A3
:10340900030235AB900DA2E0640160030235AB7491
:1034190002F0900D6B123A48C003C002C001900D32
:1034290084123A48900002123B10900D3C123A481F
:10343900900018123920900D381239D4900D6E125F
:103449003A48C003C002C001900D87123A48900063
:1034590002123B10900D87123A48742A1236D990FD
:103469000D87123A4890000174361236EB90000528
:1034790074011236EB900D447402F0E4900D43F0A0
:10348900850883850982F0A3F0850883850982E090
:10349900FEA3E0FFC39404EE64809480505E900D17
:1034A90074123A48C003C002C001EF7803C333CE97
:1034B90033CED8F9FF2445F582740D3EF583123ACF
:1034C90048900002123B1074452FF582740D3EF5A9
:1034D90083123A4890000574011236EB74492FF5AE
:1034E90082740D3EF5831239F900000000850883C6
:1034F900850982E475F001123755808D900D4512CA
:103509003A4874041236D9900D45123A4890000190
:1035190074041236EB900D4D123A4874241236D9C0
:10352900900D4D123A4890000174041236EB900D3B
:1035390055123A4874401236D9900D55123A4890AE
:10354900000174041236EB900D5D123A487457125B
:1035590036D9900D5D123A4890000174041236EB89
:10356900850883850982E4F0A3F0850883850982AB
:10357900E0FEA3E0FFC39414EE648094805023908E
:103589000CFC75F003EF123A2AEE75F003A42583BB
:10359900F583E4F085088385098275F001123755B2
:1035A90080C830A403023638900D65123A48C0032A
:1035B900C002C001900D84123A48900002123B10DB
:1035C900900D3C123A48900018123920900D38128B
:1035D90039D4E4900DA2F0900D87123A4890000575
:1035E900E41236EB850883850982E4F0A3F08508A7
:1035F90083850982E0FEA3E0FFC39404EE6480940E
:1036090080502CEF7803C333CE33CED8F92445F557
:1036190082740D3EF583123A48900005E41236EBA8
:0F362900850883850982E475F00112375580BF4B
:06363800900003023B6F4D
:105591007BFF7A1B797B900E39E4F0A37440F07D98
:1055A100807C001265BF900D65123A687BFF7A1FFF
:1055B100797B900E39E4F0A37440F07D807C001279
:1055C10065BF900D68123A687BFF7A23797B900E54
:1055D10039E4F0A37440F07D807C001265BF900D2A
:1055E1006B123A687BFF7A2F797B900E39E4F0A336
:1055F1007406F0FD7C001265BF900D6E123A687B57
:10560100FF7A2F7981900E39E4F0A37406F0FD7CC6
:10561100001265BF900D71123A687BFF7A2F79876E
:10562100900E39E4F0A37406F0FD7C001265BF9082
:105631000D74123A687BFF7A2F798D900E39E4F060
:10564100A37406F0FD7C001265BF900D77123A68D5
:105651007BFF7A27797B900E39E4F0A37440F07DCB
:10566100807C001265BF900D7A123A687BFF7A2B1D
:10567100797B900E39E4F0A37440F07D807C0012B8
:0856810065BF900D7D023A683F
:01000A0022D3
:103C9100FC7D0312370D74FC2FF9740C3EFA7B0185
:0F3CA10090FFFD123B6F123A6890FFFE123B6FCF
:103CB000850883850982E4F0A3F08508838509825D
:103CC000E0FEA3E0FFC39404EE940040030240F83A
:103CD000EF7803C333CE33CED8F92445F582740D83
:103CE0003EF583123A489000051236577003023DA4
:103CF00090850883850982A3A3123A489000011297
:103D00003657FD850883850982E0FEA3E07803C36A
:103D100033CE33CED8F92445F582740D3EF58312A7
:103D20003A4812363EFFEDC39F4065EF2406FFE49C
:103D300033FEC3ED9FEE6480F8748098505285087E
:103D400083850982E0FEA3E07803C333CE33CED867
:103D5000F92445F582740D3EF583123A489000012E
:103D6000123657FF850883850982A3A3123A48902B
:103D70000002123657FEC39F4016EF2406FDE433BF
:103D8000FCEEC39DEC6480F874809850030240DD23
:103D9000850883850982E0FEA3E07803C333CE3330
:103DA000CED8F92445F582740D3EF583123A489039
:103DB00000051236577003023E9F850883850982ED
:103DC000A3A3123A489000011236572401FDE433B0
:103DD000FC850883850982E0FEA3E07803C333CE27
:103DE00033CED8F92445F582740D3EF583123A4856
:103DF00012363EFFC3ED9F7480F86C985003023E6C
:103E00009F850883850982A3A3123A489000011276
:103E100036572401FDE433FC850883850982E0FEE2
:103E2000A3E07803C333CE33CED8F92445F58274AA
:103E30000D3EF583123A4812363E2406FFE433FE67
:103E4000C3ED9FEE6480F8EC64809850528508833F
:103E5000850982E0FEA3E07803C333CE33CED8F9E0
:103E60002445F582740D3EF583123A489000011204
:103E70003657FF850883850982A3A3123A4890002C
:103E800002123657FEC39F4016EF2406FDE433FCB2
:103E9000EEC39DEC6480F874809850030240DD8589
:103EA0000883850982E0FEA3E07803C333CE33CED6
:103EB000D8F92445F582740D3EF583123A489000F6
:103EC000051236577003023FE1850883850982A3F6
:103ED000A3123A489000011236572401FDE433FC46
:103EE000850883850982E0FEA3E07803C333CE33DF
:103EF000CED8F92445F582740D3EF583123A481266
:103F0000363EFFC3ED9F7480F86C985003023FE18A
:103F1000850883850982A3A3123A489000011236CE
:103F2000572401FDE433FC850883850982E0FEA364
:103F3000E07803C333CE33CED8F92445F582740D2F
:103F40003EF583123A4812363E2406FFE433FEC3A0
:103F5000ED9FEE6480F8EC6480984003023FE185B9
:103F60000883850982E0FEA3E07803C333CE33CE15
:103F7000D8F92445F582740D3EF583123A48900035
:103F800001123657FF850883850982A3A3123A4898
:103F90009000021236572401FDE433FCC3ED9F74F8
:103FA00080F86C98403B850883850982E0FEA3E099
:103FB0007803C333CE33CED8F92445F582740D3E51
:103FC000F583123A489000011236572406FFE43375
:103FD000FEC3ED9FEE6480F8EC64809850030240CD
:103FE000DD850883850982E0FEA3E07803C333CE34
:103FF00033CED8F92445F582740D3EF583123A4844
:1040000090000512365770030240E8850883850941
:1040100082A3A3123A48900001123657FD85088307
:10402000850982E0FEA3E07803C333CE33CED8F90E
:104030002445F582740D3EF583123A4812363EFF50
:10404000EDC39F50030240E8EF2406FFE433FEC3B4
:10405000ED9FEE6480F874809840030240E8850884
:1040600083850982E0FEA3E07803C333CE33CED844
:10407000F92445F582740D3EF583123A489000010B
:10408000123657FF850883850982A3A3123A489008
:1040900000021236572401FDE433FCC3ED9F748007
:1040A000F86C984043850883850982E0FEA3E07898
:1040B00003C333CE33CED8F92445F582740D3EF5D3
:1040C00083123A489000011236572406FFE433FE6B
:1040D000C3ED9FEE6480F8EC648098500B850883F4
:1040E000850982A3E0FF8012850883850982E47533
:0A40F000F001123755023CBA7F635D
:0640FA00900005023B6F7F
:10444A00850883850982E0FEA3E0FF7C007D0312D4
:0C445A00370D74FC2FF9740C3EFA7B0146
:1044660090FFFD123B6F123A68900D87123A489002
:1044760000051236576067850883850982123A4817
:10448600900001123657FF900D87123A4812363EB9
:10449600FEEFC39E4048EFFDEE2406FFE433FEC365
:1044A600ED9FEE6480F874809850339000011236C8
:1044B60057FF850883850982123A48900002123612
:1044C60057FEC39F4018EF2406FDE433FCEEC39D60
:1044D600EC6480F874809850057F010246EC900DDC
:1044E60087123A48900005123657700302458285B6
:1044F6000883850982123A48900001123657240132
:10450600FFE433FE900D87123A4812363EFDC3EFA4
:104516009D7480F86E984064850883850982123AF6
:10452600489000011236572401FFE433FE900D87B0
:10453600123A4812363E2406FDE433FCC3EF9DECE6
:104546006480F8EE6480985033900001123657FF6D
:10455600850883850982123A48900002123657FE72
:10456600C39F4018EF2406FDE433FCEEC39DEC64C4
:1045760080F874809850057F010246EC900D8712F2
:104586003A48900005123657700302464B85088359
:10459600850982123A489000011236572401FFE439
:1045A60033FE900D87123A4812363EFDC3EF9D74D6
:1045B60080F86E98500302464B850883850982125F
:1045C6003A489000011236572401FFE433FE900D5D
:1045D60087123A4812363E2406FDE433FCC3EF9DAB
:1045E600EC6480F8EE648098505B850883850982C8
:1045F600123A489000021236572401FFE433FE9027
:104606000D87123A48900001123657FDFBC3EF9B07
:104616007480F86E98402EED2406FFE433FE85087C
:1046260083850982123A489000021236572401FD0A
:10463600E433FCC3ED9FEE6480F8EC64809850058B
:104646007F010246EC900D87123A4890000512361B
:104656005770030246EA850883850982123A489014
:104666000001123657FF900D87123A4812363EFE69
:10467600EFC39E406FEFFDEE2406FFE433FEC3ED6D
:104686009FEE6480F8748098505A85088385098265
:10469600123A489000021236572401FFE433FE9086
:1046A6000D87123A48900001123657FDFBC3EF9B67
:1046B6007480F86E98402DED2406FFE433FE8508DD
:1046C60083850982123A489000021236572401FD6A
:1046D600E433FCC3ED9FEE6480F8EC6480985004EC
:0C46E6007F0180027F00900003023B6F08
:10634400900DA27403F0900D7A123A48C003C00273
:10635400C001900D84123A48900002123B10900D37
:106364003C123A48900018123920900D381239D452
:10637400900D87123A48900005E41236EBE4900D34
:1063840083F0900D83E0FFC394045020EF75F00870
:10639400A42445F582E4340DF583123A48900005AF
:0D63A400E41236EB900D83E004F080D62269
:1063B100900DA27404F0900D7D123A48C003C00202
:1063C100C001900D84123A48900002123B10900DCA
:1063D1003C123A48900018123920900D381239D4E5
:1063E100900D87123A48900005E41236EBE4900DC7
:1063F10083F0900D83E0FFC394045020EF75F00803
:10640100A42445F582E4340DF583123A4890000541
:0D641100E41236EB900D83E004F080D622FB
:0600260090FFF9123B6F90
:10002C00900DA2E064026003021B7590FFFE123B70
:10003C006FE4F0A37405F090FFFE123B6FE4F0A3A5
:10004C007474F0900D3C123A4890000B123657FF26
:10005C00E4FCFDFE12513290FFFE123B6FE4F0A364
:10006C00740FF090FFFE123B6FE4F0A3746AF090F3
:10007C000D3C123A48900018123920900D38123964
:10008C008C123833E47B64FAF9F812387D900D3C0D
:10009C00123A4812513290FFFE123B6FE4F0A374F7
:1000AC001AF090FFFE123B6FE4F0A3746CF0900D0D
:1000BC0044E0FFE4FCFDFE900D3C123A4812513234
:1000CC0090FFFE123B6FE4F0A37424F090FFFE123D
:1000DC003B6FE4F0A3746CF0900D43E0FFE4FCFD87
:1000EC00FE900D3C123A48125132900D3C123A4897
:1000FC00900018123920900D3812398C123833E4D4
:10010C007B707A17F9F8C312390F500312634485C8
:10011C000883850982E4F0A3F0850883850982E0D1
:10012C00FEA3E0FFC39404EE94004003020DD6EF4F
:10013C007803C333CE33CED8F9FF2445F582740D42
:10014C003EF583123A489000051236577003020DA3
:10015C00C674482FF582740D3EF583E0FF900006BF
:10016C00123B93EFF0900006123B93E024FE7003D9
:10017C0002048C14700302078E147003020A882484
:10018C00036003020D90850883850982A3A3E4F024
:10019C00A3F0850883850982A3A3E0FCA3E0FDC33B
:1001AC009406EC9400400302024F85088385098273
:1001BC00E0FEA3E07803C333CE33CED8F92445F563
:1001CC0082740D3EF583123A4812363E7E002DFDA8
:1001DC00EE3CFC850883850982E0FEA3E07803C32E
:1001EC0033CE33CED8F92445F582740D3EF5831207
:1001FC003A4890000112365724FFFEE434FF900E6B
:10020C0039F0A3CEF0900D3C123A4812648BEF609B
:10021C0020850883850982E0FEA3E07803C333CEF2
:10022C0033CED8F92448F582740D3EF583E4F08082
:10023C0012850883850982A3A3E475F00112375552
:10024C0002019E850883850982E0FCA3E0FDAE04D3
:10025C007803C333CE33CED8F92448F582740D3EDF
:10026C00F583E07003020DC6900D6E123A48C00380
:10027C00C002C001EDAE047803C333CE33CED8F93F
:10028C00FF2445F582740D3EF583123A4890000226
:10029C00123B1074452FF582740D3EF583123A48CB
:1002AC0090000174FF1236A61267BD7C007D03120C
:1002BC00371FED4C600302045B900D3C123A4890E2
:1002CC000018123920E47B64FAF9F812387DEF2417
:1002DC00FEFFEE34FFFEED34FFFDEC34FFFCC004FA
:1002EC00C005C006C007850883850982E0FEA3E02F
:1002FC007803C333CE33CED8F92449F582740D3E3E
:10030C00F58312398CD007D006D005D004C312392E
:10031C000F400302045B900D3C123A4890001812F7
:10032C003920E47B64FAF9F812387DC004C005C0AA
:10033C0006C007850883850982E0FEA3E07803C325
:10034C0033CE33CED8F92449F582740D3EF583D0E3
:10035C0007D006D005D0041239D4850883850982CC
:10036C00A3A3E4F0A3F0850883850982A3A3E0FE90
:10037C00A3E0FFC39414EE9400400302045B900CC2
:10038C00FC75F003EF123A2AEE75F003A42583F501
:10039C0083E06003020449850883850982A3A3E0F6
:1003AC00FCA3E0FD900CFC75F003123A2AEC75F0FE
:1003BC0003A42583F5837411F0850883850982E0F5
:1003CC00FEA3E07803C333CE33CED8F92445F582AF
:1003DC00740D3EF583123A4812363E2402FF900CFF
:1003EC00FD75F003ED123A2AEC75F003A42583F5A4
:1003FC0083EFF0850883850982E0FEA3E07803C3D0
:10040C0033CE33CED8F92445F582740D3EF58312E4
:10041C003A4890000112365724FEFF85088385095F
:10042C0082A3A3E0FCA3E0900CFE75F003123A2A21
:10043C00EC75F003A42583F583EFF0801285088317
:10044C00850982A3A3E475F00112375502037212D9
:10045C0067BD7C007D0512371FED4C6003020DC695
:10046C001267BD7C007D0512371F850883850982C4
:10047C00E0FEA3E07803C333CE33CED8F9020DBB34
:10048C00850883850982A3A3E4F0A3F085088385FE
:10049C000982A3A3E0FEA3E0C39406EE94004003FC
:1004AC00020555850883850982E0FEA3E07803C325
:1004BC0033CE33CED8F92445F582740D3EF5831234
:1004CC003A4812363E24FFFDE434FFFC8508838550
:1004DC000982E0FEA3E07803C333CE33CED8F924EF
:1004EC0045F582740D3EF583123A489000011236A0
:1004FC0057FF7E00850883850982A3A3E0FAA3E059
:10050C002FFFEE3A900E39F0A3EFF0900D3C123A1B
:10051C004812648BEF6020850883850982E0FEA376
:10052C00E07803C333CE33CED8F92448F582740D6A
:10053C003EF583E4F08012850883850982A3A3E449
:10054C0075F001123755020498850883850982E0FD
:10055C00FCA3E0FDAE047803C333CE33CED8F9242C
:10056C0048F582740D3EF583E07003020DC6900DC4
:10057C0071123A48C003C002C001EDAE047803C347
:10058C0033CE33CED8F92445F582740D3EF5831263
:10059C003A48900002123B10EDAE047803C333CE00
:1005AC0033CED8F92445F582740D3EF583123A48C2
:1005BC0074FF1236841267BD7C007D0312371FED69
:1005CC004C600302075D900D3C123A4890001812E3
:1005DC003920E47B64FAF9F812387DEF24FEFFEE43
:1005EC0034FFFEED34FFFDEC34FFFCC004C005C04D
:1005FC0006C007850883850982E0FEA3E07803C363
:10060C0033CE33CED8F92449F582740D3EF58312DE
:10061C00398CD007D006D005D004C312390F400353
:10062C0002075D900D3C123A48900018123920E4F4
:10063C007B64FAF9F812387DC004C005C006C00707
:10064C00850883850982E0FEA3E07803C333CE33AB
:10065C00CED8F92449F582740D3EF583D007D00627
:10066C00D005D0041239D4850883850982A3A3E46C
:10067C00F0A3F0850883850982E0FEA3E0FFC39414
:10068C0014EE9400400302075D850883850982A35C
:10069C00A3E0FCA3E0FD900CFC75F003123A2AECED
:1006AC0075F003A42583F583E0600302074B900CDF
:1006BC00FC75F003ED123A2AEC75F003A42583F5D2
:1006CC00837421F0EF7803C333CE33CED8F92445AD
:1006DC00F582740D3EF583123A4812363E2402FF21
:1006EC00900CFD75F003ED123A2AEC75F003A4257D
:1006FC0083F583EFF0850883850982E0FEA3E0781B
:10070C0003C333CE33CED8F92445F582740D3EF5B0
:10071C0083123A489000011236572406FF8508834D
:10072C00850982A3A3E0FCA3E0900CFE75F00312F4
:10073C003A2AEC75F003A42583F583EFF08012853B
:10074C000883850982A3A3E475F0011237550206CC
:10075C007F1267BD7C007D0512371FED4C600302D4
:10076C000DC61267BD7C007D0512371F8508838579
:10077C000982E0FEA3E07803C333CE33CED8F9026E
:10078C000DBB850883850982A3A3E4F0A3F085083B
:10079C0083850982A3A3E0FCA3E0FDC39406EC943B
:1007AC0000400302084B850883850982E0FEA3E024
:1007BC007803C333CE33CED8F92445F582740D3E7D
:1007CC00F583123A4812363E7E002DFDEE3CFC8538
:1007DC000883850982E0FEA3E07803C333CE33CED1
:1007EC00D8F92445F582740D3EF583123A489000F1
:1007FC000112365724FFFEE434FF900E39F0A3CEDD
:10080C00F0900D3C123A4812648BEF6020850883FF
:10081C00850982E0FEA3E07803C333CE33CED8F94A
:10082C002448F582740D3EF583E4F080128508832C
:10083C00850982A3A3E475F00112375502079A8546
:10084C000883850982E0FCA3E0FDAE047803C33382
:10085C00CE33CED8F92448F582740D3EF583E07082
:10086C0003020DC6900D74123A48C003C002C001B9
:10087C00EDAE047803C333CE33CED8F9FF2445F55F
:10088C0082740D3EF583123A48900002123B1074AC
:10089C00452FF582740D3EF583123A489000017491
:1008AC00011236A61267BD7C007D0312371FED4C7A
:1008BC006003020A57900D3C123A48900018123906
:1008CC0020E47B64FAF9F812387DEF24FEFFEE3455
:1008DC00FFFEED34FFFDEC34FFFCC004C005C00688
:1008EC00C007850883850982E0FEA3E07803C33343
:1008FC00CE33CED8F92449F582740D3EF5831239E6
:10090C008CD007D006D005D004C312390F40030297
:10091C000A57900D3C123A48900018123920E47B8B
:10092C0064FAF9F812387DC004C005C006C007850A
:10093C000883850982E0FEA3E07803C333CE33CE6F
:10094C00D8F92449F582740D3EF583D007D006D032
:10095C0005D0041239D4850883850982A3A3E4F059
:10096C00A3F0850883850982A3A3E0FEA3E0FFC35F
:10097C009414EE94004003020A57900CFC75F0039B
:10098C00EF123A2AEE75F003A42583F583E0600399
:10099C00020A45850883850982A3A3E0FCA3E0FD38
:1009AC00900CFC75F003123A2AEC75F003A4258325
:1009BC00F5837431F0850883850982E0FEA3E07825
:1009CC0003C333CE33CED8F92445F582740D3EF5EE
:1009DC0083123A4812363E24FEFF900CFD75F0034C
:1009EC00ED123A2AEC75F003A42583F583EFF0851C
:1009FC000883850982E0FEA3E07803C333CE33CEAF
:100A0C00D8F92445F582740D3EF583123A489000CE
:100A1C00011236572402FF850883850982A3A3E0BF
:100A2C00FCA3E0900CFE75F003123A2AEC75F0036F
:100A3C00A42583F583EFF08012850883850982A3B2
:100A4C00A3E475F00112375502096E1267BD7C00E4
:100A5C007D0512371FED4C6003020DC61267BD7C7D
:100A6C00007D0512371F850883850982E0FEA3E00F
:100A7C007803C333CE33CED8F9020DBB85088385FA
:100A8C000982A3A3E4F0A3F0850883850982A3A3BC
:100A9C00E0FEA3E0C39406EE94004003020B5085E5
:100AAC000883850982E0FEA3E07803C333CE33CEFE
:100ABC00D8F92445F582740D3EF583123A48123666
:100ACC003E2406FDE433FC850883850982E0FEA301
:100ADC00E07803C333CE33CED8F92445F582740DB8
:100AEC003EF583123A48900001123657FF7E00857E
:100AFC000883850982A3A3E0FAA3E02FFFEE3A90C6
:100B0C000E39F0A3EFF0900D3C123A4812648BEFC3
:100B1C006020850883850982E0FEA3E07803C33357
:100B2C00CE33CED8F92448F582740D3EF583E4F02B
:100B3C008012850883850982A3A3E475F00112371E
:100B4C0055020A94850883850982E0FCA3E0FDAE7A
:100B5C00047803C333CE33CED8F92448F582740D10
:100B6C003EF583E07003020DC6900D77123A48C033
:100B7C0003C002C001EDAE047803C333CE33CED82C
:100B8C00F92445F582740D3EF583123A4890000223
:100B9C00123B10EDAE047803C333CE33CED8F92418
:100BAC0045F582740D3EF583123A48740112368471
:100BBC001267BD7C007D0312371FED4C6003020DE4
:100BCC0063900D3C123A48900018123920E47B6473
:100BDC00FAF9F812387DEF24FEFFEE34FFFEED3407
:100BEC00FFFDEC34FFFCC004C005C006C00785083F
:100BFC0083850982E0FEA3E07803C333CE33CED8DD
:100C0C00F92449F582740D3EF58312398CD007D046
:100C1C0006D005D004C312390F4003020D63900DAA
:100C2C003C123A48900018123920E47B64FAF9F827
:100C3C0012387DC004C005C006C00785088385092D
:100C4C0082E0FEA3E07803C333CE33CED8F9244937
:100C5C00F582740D3EF583D007D006D005D0041272
:100C6C0039D4850883850982A3A3E4F0A3F0850811
:100C7C0083850982A3A3E0FEA3E0FFC39414EE9442
:100C8C00004003020D63900CFC75F003EF123A2A3E
:100C9C00EE75F003A42583F583E06003020D518506
:100CAC000883850982A3A3E0FCA3E0FD900CFC75EE
:100CBC00F003123A2AEC75F003A42583F5837441F2
:100CCC00F0850883850982E0FEA3E07803C333CE68
:100CDC0033CED8F92445F582740D3EF583123A488B
:100CEC0012363E2406FF900CFD75F003ED123A2AE5
:100CFC00EC75F003A42583F583EFF0850883850953
:100D0C0082E0FEA3E07803C333CE33CED8F924457A
:100D1C00F582740D3EF583123A4890000112365755
:100D2C002402FF850883850982A3A3E0FCA3E0903D
:100D3C000CFE75F003123A2AEC75F003A42583F52A
:100D4C0083EFF08012850883850982A3A3E475F0F4
:100D5C0001123755020C7A1267BD7C007D051237E3
:100D6C001FED4C70551267BD7C007D0512371F8539
:100D7C000883850982E0FEA3E07803C333CE33CE2B
:100D8C00D8F9802B1267BD7C007D0512371FED4C06
:100D9C0070281267BD7C007D0512371F850883857E
:100DAC000982E0FEA3E07803C333CE33CED8F92416
:100DBC0048F582740D3EF583EDF085088385098234
:100DCC00E475F001123755020125850883850982E7
:100DDC00E4F0A3F0850883850982E0FEA3E0FFC35D
:100DEC009414EE94004003021B75900CFC75F003F8
:100DFC00EF123A2AEE75F003A42583F583E0700315
:100E0C00021B65850883850982E0FEA3E0FF900C38
:100E1C00FD75F003123A2AEE75F003A42583F583D1
:100E2C00E0FD900D3C123A48900CFE75F003EF1269
:100E3C003A2AEE75F003A42583F583E0900E5BF05F
:100E4C00A37401F0125A2F850883850982E0FEA352
:100E5C00E0900CFD75F003123A2AEE75F003A42510
:100E6C0083F583E004FD900D3C123A488508838598
:100E7C000982E0FEA3E0900CFE75F003123A2AEE14
:100E8C0075F003A42583F583E0900E5BF0A3740149
:100E9C00F0125A2F850883850982E0FEA3E0FF90AB
:100EAC000CFD75F003123A2AEE75F003A42583F5B8
:100EBC0083E0FD900D3C123A48900CFE75F003EF68
:100ECC00123A2AEE75F003A42583F583E004900E04
:100EDC005BF0A37401F0125A2F850883850982E018
:100EEC00FEA3E0900CFD75F003123A2AEE75F003A8
:100EFC00A42583F583E004FD900D3C123A48850847
:100F0C0083850982E0FEA3E0900CFE75F003123A93
:100F1C002AEE75F003A42583F583E004900E5BF0B4
:100F2C00A37401F0125A2F850883850982E0FEA371
:100F3C00E0FF900CFC75F003123A2AEE75F003A456
:100F4C002583F583E0FDC4540FFC900006123B93FF
:100F5C00ECF0ED540FFD7C00900004123B93ECF090
:100F6C00A3EDF0900006123B93E024FE70030212F6
:100F7C008414700302156E14700302185C24036051
:100F8C0003021B65900CFE75F003EF123A2AEE7506
:100F9C00F003A42583F583E024FDF0900004123BBC
:100FAC0093E0FEA3E04E60030210378508838509A9
:100FBC0082E0FEA3E0FF7C00123C92850883850949
:100FCC0082A3A3E4F0A3EFF0850883850982A3A391
:100FDC00E0FEA3E0FF64634E700302106AEF780337
:100FEC00C333CE33CED8F92445F582740D3EF58348
:100FFC00123A48900005E41236EB85088385098285
:10100C00E0FEA3E0900CFC75F003123A2AEE75F0AA
:10101C0003A42583F583E4F0900D43E0240AF0E06B
:10102C00C394285003021B650218FA12444AEF605D
:10103C002D850883850982E0FEA3E0900CFC75F0F9
:10104C0003123A2AEE75F003A42583F583E4F0909D
:10105C000D44E014F0E06003021B650219308508B2
:10106C0083850982E0FEA3E0900CFD75F003123A33
:10107C002AEE75F003A42583F583E0FD7C00900D2A
:10108C003C123A48850883850982E0FEA3E0900C67
:10109C00FE75F003123A2AEE75F003A42583F5834E
:1010AC00E0FF900E39E4F0A3EFF012648BEF6003D5
:1010BC00021B47850883850982E0FEA3E0900CFDA6
:1010CC0075F003123A2AEE75F003A42583F583E03C
:1010DC002401FDE433FC900D3C123A4885088385CD
:1010EC000982E0FEA3E0900CFE75F003123A2AEEA2
:1010FC0075F003A42583F583E0FF900E39E4F0A38B
:10110C00EFF012648BEF6003021B4785088385099F
:10111C0082E0FEA3E0900CFD75F003123A2AEE7506
:10112C00F003A42583F583E0FD7C00900D3C123A7E
:10113C0048850883850982E0FEA3E0900CFE75F0DB
:10114C0003123A2AEE75F003A42583F583E024FFFD
:10115C00FEE434FF900E39F0A3CEF012648BEF60F6
:10116C0003021B47850883850982E0FEA3E0900CEF
:10117C00FD75F003123A2AEE75F003A42583F5836E
:10118C00E02401FDE433FC900D3C123A48850883C1
:10119C00850982E0FEA3E0900CFE75F003123A2A5A
:1011AC00EE75F003A42583F583E024FFFEE434FF01
:1011BC00900E39F0A3CEF012648BEF6003021B4744
:1011CC00850883850982E0FEA3E0900CFD75F00391
:1011DC00123A2AEE75F003A42583F583E0FD7C001A
:1011EC00900D3C123A48850883850982E0FEA3E005
:1011FC00900CFE75F003123A2AEE75F003A42583C9
:10120C00F583E024FEFEE434FF900E39F0A3CEF01B
:10121C0012648BEF6003021B47850883850982E00B
:10122C00FEA3E0900CFD75F003123A2AEE75F00364
:10123C00A42583F583E02401FDE433FC900D3C12DE
:10124C003A48850883850982E0FEA3E0900CFE7580
:10125C00F003123A2AEE75F003A42583F583E024FB
:10126C00FEFEE434FF900E39F0A3CEF012648BEF47
:10127C007003021B65021B47850883850982E0FE0B
:10128C00A3E0FF900CFD75F003123A2AEE75F00303
:10129C00A42583F583E024FDF0900004123B93E039
:1012AC00FCA3E04C7073123C91850883850982A3E2
:1012BC00A3E4F0A3EFF0850883850982A3A3E0FEE5
:1012CC00A3E0FF64634E7003021358EF7803C3333B
:1012DC00CE33CED8F92445F582740D3EF583123AFF
:1012EC0048900005E41236EB850883850982E0FE00
:1012FC00A3E0900CFC75F003123A2AEE75F003A4EF
:10130C002583F583E4F0900D43E0240AF0E0C394C8
:10131C00285003021B650218FA12444AEF602D850F
:10132C000883850982E0FEA3E0900CFC75F00312A3
:10133C003A2AEE75F003A42583F583E4F0900D446E
:10134C00E014F0E06003021B650219308508838508
:10135C000982E0FEA3E0900CFD75F003123A2AEE30
:10136C0075F003A42583F583E0FD7C00900D3C1201
:10137C003A48850883850982E0FEA3E0900CFE754F
:10138C00F003123A2AEE75F003A42583F583E0FFEF
:10139C00900E39E4F0A3EFF012648BEF6003021BA4
:1013AC0047850883850982E0FEA3E0900CFD75F06B
:1013BC0003123A2AEE75F003A42583F583E0240189
:1013CC00FDE433FC900D3C123A4885088385098274
:1013DC00E0FEA3E0900CFE75F003123A2AEE75F0D5
:1013EC0003A42583F583E0FF900E39E4F0A3EFF01E
:1013FC0012648BEF6003021B47850883850982E02A
:10140C00FEA3E0900CFD75F003123A2AEE75F00382
:10141C00A42583F583E02402FDE433FC900D3C12FB
:10142C003A48850883850982E0FEA3E0900CFE759E
:10143C00F003123A2AEE75F003A42583F583E0FF3E
:10144C00900E39E4F0A3EFF012648BEF6003021BF3
:10145C0047850883850982E0FEA3E0900CFD75F0BA
:10146C0003123A2AEE75F003A42583F583E0FD7C84
:10147C0000900D3C123A48850883850982E0FEA352
:10148C00E0900CFE75F003123A2AEE75F003A425D9
:10149C0083F583E02401FEE433900E39F0A3CEF003
:1014AC0012648BEF6003021B47850883850982E079
:1014BC00FEA3E0900CFD75F003123A2AEE75F003D2
:1014CC00A42583F583E02401FDE433FC900D3C124C
:1014DC003A48850883850982E0FEA3E0900CFE75EE
:1014EC00F003123A2AEE75F003A42583F583E02469
:1014FC0001FEE433900E39F0A3CEF012648BEF6052
:10150C0003021B47850883850982E0FEA3E0900C4B
:10151C00FD75F003123A2AEE75F003A42583F583CA
:10152C00E02402FDE433FC900D3C123A488508831C
:10153C00850982E0FEA3E0900CFE75F003123A2AB6
:10154C00EE75F003A42583F583E02401FEE43390CB
:10155C000E39F0A3CEF012648BEF7003021B650200
:10156C001B47850883850982E0FEA3E0FF900CFEF3
:10157C0075F003123A2AEE75F003A42583F583E087
:10158C002403F0900004123B93E0FCA3E04C707336
:10159C00123C91850883850982A3A3E4F0A3EFF0A4
:1015AC00850883850982A3A3E0FEA3E0FF64634E54
:1015BC007003021642EF7803C333CE33CED8F9242E
:1015CC0045F582740D3EF583123A48900005E412FD
:1015DC0036EB850883850982E0FEA3E0900CFC7550
:1015EC00F003123A2AEE75F003A42583F583E4F098
:1015FC00900D43E0240AF0E0C394285003021B65CD
:10160C000218FA12444AEF602D850883850982E09E
:10161C00FEA3E0900CFC75F003123A2AEE75F00371
:10162C00A42583F583E4F0900D44E014F0E060030E
:10163C00021B65021930850883850982E0FEA3E050
:10164C00900CFD75F003123A2AEE75F003A4258375
:10165C00F583E024FEFDE434FFFC900D3C123A4887
:10166C00850883850982E0FEA3E0900CFE75F003EB
:10167C00123A2AEE75F003A42583F583E0FF900E51
:10168C0039E4F0A3EFF012648BEF6003021B478583
:10169C000883850982E0FEA3E0900CFD75F003122F
:1016AC003A2AEE75F003A42583F583E024FFFDE4CC
:1016BC0034FFFC900D3C123A48850883850982E082
:1016CC00FEA3E0900CFE75F003123A2AEE75F003BF
:1016DC00A42583F583E0FF900E39E4F0A3EFF0121C
:1016EC00648BEF6003021B47850883850982E0FE4B
:1016FC00A3E0900CFD75F003123A2AEE75F003A4EA
:10170C002583F583E0FD7C00900D3C123A4885085A
:10171C0083850982E0FEA3E0900CFE75F003123A7B
:10172C002AEE75F003A42583F583E0FF900E39E4CF
:10173C00F0A3EFF012648BEF6003021B4785088364
:10174C00850982E0FEA3E0900CFD75F003123A2AA5
:10175C00EE75F003A42583F583E024FEFDE434FF4D
:10176C00FC900D3C123A48850883850982E0FEA363
:10177C00E0900CFE75F003123A2AEE75F003A425E6
:10178C0083F583E02401FEE433900E39F0A3CEF010
:10179C0012648BEF6003021B47850883850982E086
:1017AC00FEA3E0900CFD75F003123A2AEE75F003DF
:1017BC00A42583F583E024FFFDE434FFFC900D3C6D
:1017CC00123A48850883850982E0FEA3E0900CFE5E
:1017DC0075F003123A2AEE75F003A42583F583E025
:1017EC002401FEE433900E39F0A3CEF012648BEF9B
:1017FC006003021B47850883850982E0FEA3E09005
:10180C000CFD75F003123A2AEE75F003A42583F54E
:10181C0083E0FD7C00900D3C123A488508838509D5
:10182C0082E0FEA3E0900CFE75F003123A2AEE75EE
:10183C00F003A42583F583E02401FEE433900E39F4
:10184C00F0A3CEF012648BEF7003021B65021B47F2
:10185C00850883850982E0FEA3E0FF900CFD75F0FE
:10186C0003123A2AEE75F003A42583F583E02403D2
:10187C00F0900004123B93E0FCA3E04C7076123C19
:10188C0091850883850982A3A3E4F0A3EFF0850872
:10189C0083850982A3A3E0FEA3E0FF64634E70037B
:1018AC00021936EF7803C333CE33CED8F92445F57D
:1018BC0082740D3EF583123A48900005E41236EB23
:1018CC00850883850982E0FEA3E0900CFC75F0038B
:1018DC00123A2AEE75F003A42583F583E4F0900DFB
:1018EC0043E0240AF0E0C394285003021B65126302
:1018FC00B1021B6512444AEF60308508838509826A
:10190C00E0FEA3E0900CFC75F003123A2AEE75F0A1
:10191C0003A42583F583E4F0900D44E014F0E0601B
:10192C0003021B65126344021B65850883850982CB
:10193C00E0FEA3E0900CFD75F003123A2AEE75F070
:10194C0003A42583F583E024FFFDE434FFFC900D14
:10195C003C123A48850883850982E0FEA3E0900C8E
:10196C00FE75F003123A2AEE75F003A42583F58375
:10197C00E0FF900E39E4F0A3EFF012648BEF6003FC
:10198C00021B47850883850982E0FEA3E0900CFDCD
:10199C0075F003123A2AEE75F003A42583F583E063
:1019AC00FD7C00900D3C123A48850883850982E045
:1019BC00FEA3E0900CFE75F003123A2AEE75F003CC
:1019CC00A42583F583E0FF900E39E4F0A3EFF01229
:1019DC00648BEF6003021B47850883850982E0FE58
:1019EC00A3E0900CFD75F003123A2AEE75F003A4F7
:1019FC002583F583E02401FDE433FC900D3C123A81
:101A0C0048850883850982E0FEA3E0900CFE75F002
:101A1C0003123A2AEE75F003A42583F583E0FF90B8
:101A2C000E39E4F0A3EFF012648BEF6003021B4756
:101A3C00850883850982E0FEA3E0900CFD75F00318
:101A4C00123A2AEE75F003A42583F583E024FFFDFA
:101A5C00E434FFFC900D3C123A48850883850982DA
:101A6C00E0FEA3E0900CFE75F003123A2AEE75F03E
:101A7C0003A42583F583E02401FEE433900E39F0B2
:101A8C00A3CEF012648BEF6003021B47850883859D
:101A9C000982E0FEA3E0900CFD75F003123A2AEEE9
:101AAC0075F003A42583F583E0FD7C00900D3C12BA
:101ABC003A48850883850982E0FEA3E0900CFE7508
:101ACC00F003123A2AEE75F003A42583F583E02483
:101ADC0001FEE433900E39F0A3CEF012648BEF606C
:101AEC00028058850883850982E0FEA3E0900CFDF6
:101AFC0075F003123A2AEE75F003A42583F583E002
:101B0C002401FDE433FC900D3C123A488508838592
:101B1C000982E0FEA3E0900CFE75F003123A2AEE67
:101B2C0075F003A42583F583E02401FEE433900EC5
:101B3C0039F0A3CEF012648BEF601E850883850903
:101B4C0082E0FEA3E0900CFC75F003123A2AEE75CD
:101B5C00F003A42583F583E4F0850883850982E4EA
:091B6C0075F001123755020DE07D
:061B7500900007023B6F27
:10548A00126BAB1255917D407C007F807E00125BCF
:10549A00E1900D3C123A68126B3E900D84123A6804
:1054AA00900D84123A48C003C002C001900D3C120C
:1054BA003A48900002123B10900D65123A48C00318
:1054CA00C002C001900D84123A48900002123B10AB
:1054DA00126B3E900D87123A68900005E41236EB83
:1054EA00900D87123A48900E37123A68900D84123E
:1054FA003A481261EBE4900D83F0126B3E900D83F3
:10550A00E0FF75F008A42445F582E4340DF5831212
:10551A003A68EF75F008A42445F582E4340DF58362
:10552A00123A48900005E41236EBEF75F008A4240D
:10553A0045F582E4340DF583123A48900E37123A53
:10554A0068900D84123A481261EB900D83E004F0E2
:10555A00E0C3940440A47BFF7A00790AC003C00226
:10556A00C001900D3C123A48900005123B107BFF97
:10557A007A007926C003C002C001900D3C123A4855
:07558A00900008123B102203
:07000300900D3C123A482267
:096BDB00900D3C123A4802410001
:1060FD0090FFFC123B6F1239D4900D3C123A48E9D7
:10610D004A4B605E850883850982123980900D3C6B
:10611D00123A48900018123950122F93900DA2E0A8
:10612D007040900D38123980EF2464FFE43EFEE498
:10613D003DFDE43CFC85088385098212398CD31220
:10614D00390F401E900DA27401F0900D68123A485F
:10615D00C003C002C001900D84123A489000021293
:08616D003B10900004023B6F9F
:096BE400900D3C123A48026BF4DA
:1066180080402010080402017FBFDFEFF7FBFDFE7A
:106628000080C0E0F0F8FCFE000103070F1F3F7F69
:10663800310C613CCF31804B129321294A404902E9
:106648001321014A4049046539C231C0490815057A
:1066580024484049109785244A40339E6138C43104
:086668008000000000000000AA
:106B8500C2B5D2B6D2B700000000E580339200C28C
:036B9500B7A200A4
:016B980022DA
:0869D000900E37A3E02480FFC4
:1069D800126B8540FBC2B5C2B6C2B700008F8000FB
:0C69E800000000D2B700000000C2B7227F
:10676C00900E34123A48900011123AE0900E40E02C
:10677C002401FF900E3FE03400FE8F82F583123629
:10678C0057FD900E34123A48900014123AE08F8262
:07679C008E83ED1236EBFFC6
:1067A300126B8540FBD2B5C2B6C2B78F8000000022
:0A67B30000D2B700000000C2B722B8
:076B0A007401F07F0F7E0013
:106B1100EF1FAC0670011ED39400EC9400400300FB
:036B210080EE22E1
:106B2400D2C6C2C7D2C77F341269D87F301269D89F
:0A6B34007F0C1269D87F010269D8B6
:106AD4007F341269D8126B0D7F301269D8126B0D96
:0C6AE4007F011269D87F0F7E00026B1149
:0E6BAB007E007F007D1C7C0C1268E0026B24D3
:0E65BF00900E34123A68900E37ECF0A3EDF017
:1065CD007D057C007F017E0012689EAA06A9077BCF
:1065DD0001900E3B123A68900E34123A48C003C037
:1065ED0002C001900E3B123A48123A91900E37A319
:1065FD00E0FF900E3B123A48900003EF1236EB90FD
:0A660D000E39A3E09000041236EBF2
:016617002260
:105F5800E4FBFAEB2480FF1269D87F801269D8E449
:105F6800900E8EF0A3F0E4FF1267A3900E8EE475F6
:105F7800F001123755C3900E8FE09410900E8EE00A
:105F8800940040E27F0A7E00126B110BBB00010AED
:105F9800EB64204A70BDE4FAFBEB2480FF1269D859
:105FA8007F881269D8E4900E8EF0A3F0E4FF1267A0
:105FB800A3900E8EE475F001123755C3900E8FE052
:105FC8009410900E8EE0940040E27F0A7E00126BDF
:0C5FD800110BBB00010AEB64204A70BDF5
:015FE400229A
:0E5BE100900E34EEF0A3EFF0A3ECF0A3EDF085
:105BEF007D1C7C007F017E0012689EAA06A9077BA0
:105BFF0001900E38123A68900E34A3E01236D99005
:105C0F000E36A3E0FFA3123A48900001EF1236EBD5
:105C1F00900E36E0FCA3E0FD900E34E0FEA3E0FF13
:105C2F0012370DEF7803CEC313CE13D8F9FDAC06A0
:105C3F007F017E0012689EAA06A9077B01C003C0E0
:105C4F0002C001900E38123A48900011123B10908A
:105C5F000E36E0FCA3E0FD900E34E0FEA3E0FF1251
:105C6F00370DEF7803CEC313CE13D8F9FDAC067FF3
:105C7F00017E0012689EAA06A9077B01C003C0021D
:105C8F00C001900E38123A48900014123B10126A5D
:075C9F00D4900E38123A48C0
:015CA60022DB
:105A2F00900E57123A68900E5AEDF0C3940050033F
:105A3F00025B0FA3E0FF94005003025B0F900E5721
:105A4F00123A4812363EFE900E5AE0C39E400302B1
:105A5F005B0F900001123657FDEFC39D4003025BB1
:105A6F000F900E5CE0603F900011123AE0EE1313BE
:105A7F0013541FFF900E5BE0FEEF8EF0A4FF900E0D
:105A8F005AE0131313541F7C002FFFEC35F0FEE97F
:105A9F002FF9EA3EFA12363EFF900E5AE054079065
:105AAF006618934F8057900E57123A489000111274
:105ABF003AE0C003C002C001900E57123A481236A6
:105ACF003E131313541FFF900E5BE0FEEF8EF0A4F6
:105ADF00FF900E5AE0131313541F7C002FFFEC3569
:105AEF00F0FED001D002D003E92FF9EA3EFA1236C8
:105AFF003EFF900E5AE05407906620935F1236D9FE
:015B0F002273
:10680A00900E5AEDF0900E57123A68900E5CE0FD29
:10681A00900011123AE0C003C002C001900E571254
:10682A003A4812363E131313541FFF900E5BE0FED4
:10683A00EF8EF0A4FF900E5AE02FF582E435F0F5C2
:0B684A0083D001D002D003ED0236EB3A
:0E5EB600900E57123A68900E5AECF0A3EDF0E1
:105EC400900E57123A48900003123657FB7A007C22
:105ED400007D08FF7E0012371FED4C600EC374086E
:105EE4009DFFE49CFEEF2BFBEA3EFA900E5CE0FC87
:105EF400A3E0FDAE02AF0312370DEF7803CEC31358
:105F0400CE13D8F9FDAC06900E5AE0FEA3E0780358
:105F1400CEC313CE13D8F92DFFEC3EFE900E5712CC
:105F24003A48123A718F828E83123657FF7C009062
:105F34000E5BE05407FD2418F582EC3466F583E427
:105F4400935FFFC374079DFEEFA806088002C31386
:035F5400D8FCFF77
:015F57002227
:0E641E00900E57123A68900E5AECF0A3EDF073
:10642C00900E57123A48900003123657FB7A007CB4
:10643C00007D08FF7E0012371FED4C600EC3740800
:10644C009DFFE49CFEEF2BFBEA3EFAAE02AF037C11
:10645C00007D0812371F900E5CE0FCA3E0FD1237A4
:10646C000D900E5BE02FFF900E5AE03EFE900E5703
:0E647C00123A48123A718F828E83123657FF01
:01648A0022EF
:10648B00900E37ECF0A3EDF012363E131313541F9E
:10649B00FF7E00900E39E0FCA3E0FD12370DAC0639
:1064AB00AD07900E37E0FEA3E07803CEC313CE13F7
:1064BB00D8F92DFFEC3EFE900014123AE08F828E3D
:1064CB0083123657FF7C00900E38E05407FD2418DA
:1064DB00F582EC3466F583E4935FFFC374079DFE8E
:0C64EB00EFA806088002C313D8FCFF22B3
:0646F200900E45123A682B
:1046F800900E48123A48900002123AE0E94A4B708C
:104708000302490E900E48123A4812363EFF900EA8
:104718004FE4F0A3EFF0900001123657FF900E51CE
:10472800E4F0A3EFF0900002123AE0900003123692
:1047380057FF900E53E4F0A3EFF0900004123657A1
:10474800FF900E55E4F0A3EFF0900E4FE0FEA3E0CB
:10475800FF7C007D0812371FED4C600302483D9036
:104768000E53E0FEA3E0FF7C007D0812371FED4CDE
:10477800600302483D900E4DF0A3F0900E55E0FE08
:10478800A3E0FFC3900E4EE09FEE6480F8900E4DBC
:10479800E0648098400302490EE4900E4BF0A3F0C9
:1047A800900E53E0FEA3E0FF7C007D0812371F90B7
:1047B8000E4BE0FAA3E0FBC39FEE6480F8EA648046
:1047C800985065900E4FE0FEA3E0FF7C007D081234
:1047D800371FEF2BFDC005900E48123A4890000293
:1047E800123AE0900E4BE0FCA3E0FDA3E0FFA3E04B
:1047F800900E5CCFF0A3EFF012641E900E5CEFF009
:10480800900E45123A48900E51A3E0FF900E4DA32A
:10481800E02F900E5BF0D00512680A900E4BE475FD
:10482800F0011237550247A8900E4DE475F00112B9
:104838003755024783E4900E4DF0A3F0900E55E0F3
:10484800FEA3E0FFC3900E4EE09FEE6480F8900E4A
:104858004DE0648098400302490EE4900E4BF0A3AB
:10486800F0900E53E0FEA3E0FF900E4BE0FCA3E0B7
:10487800FDC39FEE6480F8EC648098507C900E48ED
:10488800123A48900002123AE0900E4DE0FFA3E081
:10489800900E5CCFF0A3EFF0125EB6EF900E45607D
:1048A80025123A48900E4BA3E0FF900E4FA3E02F3D
:1048B800FD900E4DA3E0FF900E51A3E02F900E5BEC
:1048C800F0A374018022123A48900E4BA3E0FF90A7
:1048D8000E4FA3E02FFD900E4DA3E0FF900E51A3C5
:1048E800E02F900E5BF0E4A3F0125A2F900E4BE4E9
:1048F80075F001123755024869900E4DE475F001C4
:064908001237550248447D
:01490E002286
:0F577E0090FFFD123B6F123A6890FFFE123B6FD7
:10578D00850883850982E4F0A3F0900005123B9310
:10579D00123A489000051236577003025861850879
:1057AD0083850982A3A3123A48C003C002C00190A9
:1057BD000005123B93123A48900E48123A68D001F8
:1057CD00D002D0031246F2900005123B93123A48D4
:1057DD00E92407F9E43AFA850883850982E0FEA3F6
:1057ED00E0FF75F003A4F58285F083EE75F003A458
:1057FD002583F583123AE0E94A4B60589000051273
:10580D003B93123A48E92407F9E43AFA75F003EFAD
:10581D00A4F58285F083EE75F003A42583F583123C
:10582D003AE090FFFD123B6F123A68900005123B73
:10583D0093123A4812577E850883850982E475F0E4
:10584D0001123755FEC3E5F09406EE648094805046
:04585D00030257D417
:06586100900008023B6FFD
:076BED00900005ED0236EBFC
:065D6800900E42123A68A1
:105D6E00900E42123A48E94A4B7003025E12900EB0
:105D7E0042123A48900002123AE0E94A4B7003028E
:105D8E005E12E4FFFE900E42123A48900011123A53
:105D9E00E08F828E83E41236EB0FBF00010EE4B566
:105DAE0007E3EEB404DF900E42123A48900005125B
:105DBE003AE0E94A4B600F900E42123A48900005C5
:105DCE00123AE0123B69900E42123A4890000212CB
:105DDE003AE090FFFD123B6F123A68900E42123A73
:105DEE004812577E900E42123A48900008123AE03E
:105DFE00E94A4B600F900E42123A48900008123A50
:045E0E00E0123B69FA
:015E1200226D
:105E1300E4900E6AF0A3F0900011123AE0900E663F
:105E2300123A687F341269D8E4FDED2480FF1269C9
:105E3300D87F801269D8E4900E69F0900E66123A0A
:105E430048900E6AE475F00112376B85F082F58392
:105E5300123657FF1267A3900E69E004F0E0C39473
:105E63001040D8126B0D0DEDB420BFE4FDED24807E
:105E7300FF1269D87F881269D8E4900E69F0900EFA
:105E830066123A48900E6AE475F00112376B85F09A
:105E930082F583123657FF1267A3900E69E004F070
:105EA300E0C3941040D8126B0D0DEDB420BF7F36C4
:035EB3000269D8A9
:06410000900E34123A6833
:10410600E4900E3FF0A3F0A3F0900E34123A48E983
:104116004A4B7003024449900E34123A4890000DFF
:10412600123920EF2464FFE43EFEE43DFDE43CFC4E
:10413600900018123998D312390F4025900E341278
:104146003A4890001812392090000D12395090000C
:104156000C12365790000B1236EB90000CE4123618
:10416600EB900E34123A4890000C74011236A612E7
:104176005D68900E34123A4812363EFF7E007C008F
:104186007D0412371F900E3BEEF0A3EFF0900E3435
:10419600123A48900001123657FF7E007C007D04DB
:1041A60012371F900E3DEEF0A3EFF0E4900E37F0BD
:1041B600A3F0900E3BE0FEA3E0FFC3900E38E09F15
:1041C600EE6480F8900E37E064809840030242EE79
:1041D600E4900E39F0A3F0900E3DE0FEA3E0FF90D0
:1041E6000E39E0FCA3E0FDC39FEE6480F8EC64802A
:1041F6009840030242E1900E38E0C4F8540FC868B4
:10420600FF900E37E0C454F048FEED2FFFEC3E90D1
:104216000E3FF0A3EFF0900E34123A4890001712BA
:1042260036576064900011123AE0900E3FE0FEA30C
:10423600E0FFF5828E83123657FD900E34123A480F
:10424600900014123AE08F828E831236576D7038C2
:10425600900E34123A48900011123AE0900E40E067
:104266002401FF900E3FE03400FE8F82F583123664
:1042760057FD900E34123A48900014123AE08F829D
:104286008E831236576D6046900E41E070087F347B
:104296001269D8126B0A1269D0A3E0FEA3E0FF7C74
:1042A600007D0212371FEF2480FF1269D8900E346A
:1042B600123A48900011123AE0900E3FE0FEA3E059
:1042C600FFF5828E8312678A12676C126B0D900E51
:1042D60039E475F0021237550241DD900E37E47568
:1042E600F0011237550241B8E4900E37F0A3F09072
:1042F6000E3BE0FEA3E0FFC3900E38E09FEE648025
:10430600F8900E37E06480984003024430E4900E43
:1043160039F0A3F0900E3DE0FEA3E0FF900E39E0E9
:10432600FCA3E0FDC39FEE6480F8EC648098400334
:10433600024423900E38E0C4F8540FC868FF900E6C
:1043460037E0C454F048FEE42FFFEE3402CF2DCF01
:104356003C900E3FF0A3EFF0900E34123A489000D6
:10436600171236576064900011123AE0900E3FE043
:10437600FEA3E0FFF5828E83123657FD900E3412AF
:104386003A48900014123AE08F828E831236576DA7
:104396007038900E34123A48900011123AE0900E9E
:1043A60040E02401FF900E3FE03400FE8F82F5834B
:1043B600123657FD900E34123A48900014123AE025
:1043C6008F828E831236576D6046900E41E07008DC
:1043D6007F341269D8126B0A1269D0A3E0FEA3E0FB
:1043E600FF7C007D0212371FEF2488FF1269D890E8
:1043F6000E34123A48900011123AE0900E3FE0FE59
:10440600A3E0FFF5828E8312678A12676C126B0D2A
:10441600900E39E475F00212375502431A900E37A2
:10442600E475F0011237550242F5900E41E0600541
:104436007F361269D8900E34123A489000177401EC
:034446001236EB40
:014449002250
:106A5800900E88123A68900E88123A48AE02AF013A
:0F6A6800124EB87B007A007900900E88023A68CF
:016BF400227E
:1056890090FFFF123B6FEDF090FFFD123B6F123A56
:075699006890FFFB123B6F5C
:1056A000850883850982E4F0A3F0900005123B93FE
:1056B000123A48900006123657FF900008123B93AA
:1056C000E0B50703025778900005123B93123A4861
:1056D000E92407F9E43AFA850883850982E0FEA304
:1056E000E0FF75F003A4F58285F083EE75F003A466
:0C56F0002583F583123AE0E94A4B60592B
:1056FC00900008123B93E0FD900005123B93123A88
:10570C0048E92407F9E43AFA75F003EFA4F5828529
:10571C00F083EE75F003A42583F583123AE012565C
:10572C0089850883850982A3A3123A688508838535
:10573C000982A3A3123A48E94A4B600D8508838578
:09574C000982A3A3123A4880234C
:10575500850883850982E475F001123755FEC3E596
:10576500F09406EE6480948050030256C77B007A5D
:03577500007900B8
:06577800900009023B6FE6
:0A6BC700900002123AE012568922F3
:106B3E007D197C007F017E0012689EAA06A9077B44
:096B4E000190000574011236EB00
:016B5700221B
:1068550090FFFE123B6FECF0A3EDF090FFFD123BB5
:106865006F123A68900003123B93A3E0FF850883FB
:10687500850982123A48EF1236D9900005123B93EA
:10688500A3E0FF850883850982123A48900001EF4D
:096895001236EB900007023B6F84
:016BF500227D
:106A7700900E6C123A68900E6F123A48C003C0022B
:0F6A8700C001900E6C123A48900002123B102290
:106A9600900E72123A68900E75123A48C003C00200
:0F6AA600C001900E72123A48900002123B10226B
:106AB500900E8B123A68900E8B123A48AE02AF01D7
:0F6AC500124EB87B007A007900900E8B023A686F
:1069570090FFFD123B6F123A688508838509821202
:106967003A48C003C002C001900003123B93123A99
:0D69770048900002123B10900006023B6F9A
:0661EB00900E34123A6828
:1061F100E4FFFE900E34123A48E92407F9E43AFA32
:1062010075F003EFA4F58285F083EE75F003A42504
:1062110083F583123AE0E94A4B7032900E37123A15
:1062210048C003C002C001900E34123A48E9240765
:10623100F9E43AFA75F003EFA4F58285F083EE757F
:10624100F003A42583F583123B107F01220FEF7029
:0E625100010EC39406EE6480948040977F0097
:01625F00221C
:06607100900E78123A685F
:10607700E4FFFE900E78123A48E92407F9E43AFA69
:1060870075F003EFA4F58285F083EE75F003A42580
:1060970083F583123AE0C003C002C001900E7B1261
:1060A7003A48D082D083D0E06B7008E965827003EC
:1060B700EA6583702FFBFAF9C003C002C001900E96
:1060C70078123A48E92407F9E43AFA75F003EFA49D
:1060D700F58285F083EE75F003A42583F583123BE3
:1060E700107F01220FEF70010EC39406EE648094B7
:0560F7008040807F00E5
:0160FC002281
:0B4FF700900E34123A68900E37EDF077
:10500200D394094003025131E0C39400500302518A
:1050120031E4900E3EF0A3F0E4900E3CF0A3F09049
:105022000E37E075F005A4FF900E3DE02FFF900EC5
:105032003CE035F0FE7C007D0812371FAA06AB0764
:10504200900E3EE0FEA3E0FF7C007D0712370DEFDD
:105052002BFFEE3AA3F0A3EFF0900E37E075F005C8
:10506200A4FF900E3DE02FFF900E3CE035F0FE0DC8
:1050720012371F74182DF58274663CF583E493FF92
:10508200900E40E0FAA3E02438F58274663AF58384
:10509200E4935FFFC374079DFEEFA806088002C376
:1050A20013D8FC900E346025123A48900E3CA3E0CF
:1050B200FF900E38A3E02FFD900E3EA3E0FF900E6E
:1050C2003AA3E02F900E5BF0A374018022123A48BB
:1050D200900E3CA3E0FF900E38A3E02FFD900E3E11
:1050E200A3E0FF900E3AA3E02F900E5BF0E4A3F052
:1050F200125A2F900E3CE475F001123755C3900EF0
:105102003DE09405900E3CE0648094805003025090
:1051120021900E3EE475F001123755C3900E3FE028
:0F5122009408900E3EE064809480500302501A6F
:01513100225B
:1051320090FFFC123B6F1239D490FFFD123B6F12AD
:085142003A6890FFFA123B6F7E
:10514A00900004123B93E4F0A3F0900009123B9301
:10515A001239808508838509821239D485088385A6
:10516A000982C083C082123980E47B0AFAF9F812F4
:10517A00387DD082D0831239D4900004123B93E454
:10518A0075F001123755E4FFFEFDFC850883850999
:10519A008212398CC312390F70C2900009123B93E4
:1051AA0012398085088385098202525890000412B8
:1051BA003B9374FFF5F012376BFED3E5F09400EEE3
:1051CA0064809480500302525E900006123B931250
:1051DA003A48C003C002C001E47B0AFAF9F885081C
:1051EA008385098212398012387DAF03AD07C00565
:1051FA00900004123B93E0FEA3E0FF7C007D0512C1
:10520A00370D90000D123B93E0FCA3E02FFFEC3E1C
:10521A00900E38F0A3EFF090000F123B93E0FFA33B
:10522A00E0900E3ACFF0A3EFF0D005D001D002D033
:10523A0003124FF7850883850982C083C082123919
:10524A0080E47B0AFAF9F812387DD082D0831239C9
:04525A00D40251B673
:06525E00900011023B6FFD
:106B9900AD07AC067F017E0012689EAA06A9077B95
:026BA9000122C7
:105382000102040810204080000001000200010018
:1053920003000100020001000400010002000100FC
:1053A20003000100020001000500010002000100EB
:1053B20003000100020001000400010002000100DC
:1053C20003000100020001000600010002000100CA
:1053D20003000100020001000400010002000100BC
:1053E20003000100020001000500010002000100AB
:1053F200030001000200010004000100020001009C
:105402000300010002000100070001000200010088
:10541200030001000200010004000100020001007B
:10542200030001000200010005000100020001006A
:10543200030001000200010004000100020001005B
:105442000300010002000100060001000200010049
:10545200030001000200010004000100020001003B
:10546200030001000200010005000100020001002A
:10547200030001000200010004000100020001001B
:0854820003000100020001001B
:064CFD0090FFF5123B6F71
:104D0300126BF6900DF81239F900000000E4782DCB
:104D1300F67823F6784CF67822F678481239E000D4
:104D230000000078441239E000000000E47821F626
:104D33007B017A0E7933850883850982A3A3123A0E
:104D430068850883850982E4F0A3F08508838509D3
:104D530082E0FEA3E0C39401EE9400502185088312
:104D6300850982A3A3E475F001123A51E41236D9FE
:104D730085088385098275F00112375580CDE47863
:104D83004DF608F6FBFAF9782E123A3F782A123AD2
:104D93003F7824123A3F850883850982E4F0A3F023
:104DA300850883850982E0FEA3E0FFC39406EE94A1
:104DB3000050207B007A007900EF75F003A42431C2
:104DC300F8123A3F850883850982E475F0011237AA
:104DD3005580CD7B017A0D79A3900005123B931288
:104DE3003A687B017A0D79B4900008123B93123A2A
:104DF30068850883850982E4F0A3F0850883850923
:104E030082E0FEA3E0C39404EE94005049900008AE
:104E1300123B93123A48C003C002C001900005122E
:104E23003B93123A48900003123B10900005123B4B
:104E330093A3E475F011123755900008123B93A326
:104E4300E475F011123755850883850982E475F0FE
:104E53000112375580A57B007A007900C003C00298
:104E6300C001900005123B93123A48900003123B95
:104E7300107B017A0D79A37827123A3F90FFFF1236
:104E83003B6F7405F07B017A0D79FC90FFFD123BBB
:104E93006F123A687B007A00790090FFFD123B6F36
:0F4EA300123A687BFF7A69791C125264126BF71E
:064EB20090000B023B6FB3
:0E6BB900C2AF782DE6C394FF500106D2AF2282
:1062D400C2AF782DE6D39400400116782DE6705DA8
:1062E4007823E670587821E690538A937843F6E64B
:1062F400FF2433F582E4340EF583E090538A93FE51
:10630400EF33333354F8FFEE2FFF784EF618E66F71
:10631400602B08E675F003A42431F8123A36782E7F
:10632400123A3F7844123974EF2401FFE43EFEE44C
:106334003DFDE43CFC78441239C8126BD1D2AF2243
:06655D0090FFFE123B6FEF
:106563007822E6705118E690538A9385088385094B
:1065730082F0E0FF2433F582E4340EF583E0905398
:106583008A93850883850982A3F0EF33333354F864
:10659300FF850883850982A3E02F784EF618F675E8
:1065A300F003A42431F8123A36782E123A3F782AAF
:0665B300123A3F1266C817
:0665B900900002023B6F9E
:06594B0090FFFD123B6F0E
:10595100126BF9C2AF900DF8123980EF2401FFE408
:105961003EFEE43DFDE43CFC900DF81239D4D2AF8B
:105971007824123A36850883850982123A688508A7
:1059810083850982123A4890000C123657640570DB
:1059910003025A29C2AF90000912378145F0606BAA
:1059A100850883850982123A4890000974FFF5F051
:1059B1001237B945F0705490000B12365720E33876
:1059C100900010123657782146F690000E12365785
:1059D1002433F582E4340EF583C083C082E0FF8571
:1059E1000883850982123A4890000F123657FEEF5C
:1059F1004ED082D083F08013850883850982123AC4
